{
  "contractName": "eGovDAO",
  "abi": [
    {
      "inputs": [],
      "stateMutability": "nonpayable",
      "type": "constructor"
    },
    {
      "anonymous": false,
      "inputs": [
        {
          "indexed": false,
          "internalType": "uint256",
          "name": "proposalId",
          "type": "uint256"
        },
        {
          "indexed": false,
          "internalType": "uint256",
          "name": "bidId",
          "type": "uint256"
        },
        {
          "indexed": false,
          "internalType": "address",
          "name": "bidder",
          "type": "address"
        },
        {
          "indexed": false,
          "internalType": "uint256",
          "name": "amount",
          "type": "uint256"
        },
        {
          "indexed": false,
          "internalType": "uint256",
          "name": "initialPayment",
          "type": "uint256"
        }
      ],
      "name": "BidAccepted",
      "type": "event"
    },
    {
      "anonymous": false,
      "inputs": [
        {
          "indexed": false,
          "internalType": "uint256",
          "name": "proposalId",
          "type": "uint256"
        },
        {
          "indexed": false,
          "internalType": "uint256",
          "name": "bidId",
          "type": "uint256"
        },
        {
          "indexed": false,
          "internalType": "address",
          "name": "bidder",
          "type": "address"
        },
        {
          "indexed": false,
          "internalType": "uint256",
          "name": "amount",
          "type": "uint256"
        },
        {
          "indexed": false,
          "internalType": "string",
          "name": "details",
          "type": "string"
        }
      ],
      "name": "BidSubmitted",
      "type": "event"
    },
    {
      "anonymous": false,
      "inputs": [
        {
          "indexed": false,
          "internalType": "uint256",
          "name": "proposalId",
          "type": "uint256"
        },
        {
          "indexed": false,
          "internalType": "string",
          "name": "title",
          "type": "string"
        },
        {
          "indexed": false,
          "internalType": "string",
          "name": "description",
          "type": "string"
        },
        {
          "indexed": false,
          "internalType": "string",
          "name": "imageId",
          "type": "string"
        },
        {
          "indexed": false,
          "internalType": "uint256",
          "name": "maxBids",
          "type": "uint256"
        }
      ],
      "name": "ProposalCreated",
      "type": "event"
    },
    {
      "anonymous": false,
      "inputs": [
        {
          "indexed": false,
          "internalType": "uint256",
          "name": "proposalId",
          "type": "uint256"
        },
        {
          "indexed": false,
          "internalType": "address",
          "name": "voter",
          "type": "address"
        }
      ],
      "name": "ProposalVoted",
      "type": "event"
    },
    {
      "inputs": [],
      "name": "bidCount",
      "outputs": [
        {
          "internalType": "uint256",
          "name": "",
          "type": "uint256"
        }
      ],
      "stateMutability": "view",
      "type": "function",
      "constant": true
    },
    {
      "inputs": [
        {
          "internalType": "uint256",
          "name": "",
          "type": "uint256"
        },
        {
          "internalType": "uint256",
          "name": "",
          "type": "uint256"
        }
      ],
      "name": "bids",
      "outputs": [
        {
          "internalType": "uint256",
          "name": "id",
          "type": "uint256"
        },
        {
          "internalType": "uint256",
          "name": "proposalId",
          "type": "uint256"
        },
        {
          "internalType": "address",
          "name": "bidder",
          "type": "address"
        },
        {
          "internalType": "uint256",
          "name": "amount",
          "type": "uint256"
        },
        {
          "internalType": "string",
          "name": "details",
          "type": "string"
        },
        {
          "internalType": "bool",
          "name": "accepted",
          "type": "bool"
        }
      ],
      "stateMutability": "view",
      "type": "function",
      "constant": true
    },
    {
      "inputs": [],
      "name": "owner",
      "outputs": [
        {
          "internalType": "address",
          "name": "",
          "type": "address"
        }
      ],
      "stateMutability": "view",
      "type": "function",
      "constant": true
    },
    {
      "inputs": [],
      "name": "proposalCount",
      "outputs": [
        {
          "internalType": "uint256",
          "name": "",
          "type": "uint256"
        }
      ],
      "stateMutability": "view",
      "type": "function",
      "constant": true
    },
    {
      "inputs": [
        {
          "internalType": "uint256",
          "name": "",
          "type": "uint256"
        }
      ],
      "name": "proposals",
      "outputs": [
        {
          "internalType": "uint256",
          "name": "id",
          "type": "uint256"
        },
        {
          "internalType": "string",
          "name": "title",
          "type": "string"
        },
        {
          "internalType": "string",
          "name": "description",
          "type": "string"
        },
        {
          "internalType": "string",
          "name": "imageId",
          "type": "string"
        },
        {
          "internalType": "uint256",
          "name": "voteCount",
          "type": "uint256"
        },
        {
          "internalType": "uint256",
          "name": "bidCount",
          "type": "uint256"
        },
        {
          "internalType": "uint256",
          "name": "maxBids",
          "type": "uint256"
        },
        {
          "internalType": "enum eGovDAO.ProposalStatus",
          "name": "status",
          "type": "uint8"
        },
        {
          "internalType": "address",
          "name": "proposer",
          "type": "address"
        },
        {
          "internalType": "uint256",
          "name": "remainingPayment",
          "type": "uint256"
        },
        {
          "internalType": "bool",
          "name": "paymentMade",
          "type": "bool"
        }
      ],
      "stateMutability": "view",
      "type": "function",
      "constant": true
    },
    {
      "inputs": [
        {
          "internalType": "address",
          "name": "",
          "type": "address"
        }
      ],
      "name": "users",
      "outputs": [
        {
          "internalType": "bool",
          "name": "registered",
          "type": "bool"
        },
        {
          "internalType": "bool",
          "name": "isGovernment",
          "type": "bool"
        }
      ],
      "stateMutability": "view",
      "type": "function",
      "constant": true
    },
    {
      "inputs": [
        {
          "internalType": "address",
          "name": "",
          "type": "address"
        },
        {
          "internalType": "uint256",
          "name": "",
          "type": "uint256"
        }
      ],
      "name": "votes",
      "outputs": [
        {
          "internalType": "bool",
          "name": "",
          "type": "bool"
        }
      ],
      "stateMutability": "view",
      "type": "function",
      "constant": true
    },
    {
      "inputs": [
        {
          "internalType": "address",
          "name": "newOwner",
          "type": "address"
        }
      ],
      "name": "transferOwnership",
      "outputs": [],
      "stateMutability": "nonpayable",
      "type": "function"
    },
    {
      "inputs": [
        {
          "internalType": "address",
          "name": "_user",
          "type": "address"
        },
        {
          "internalType": "bool",
          "name": "_isGovernment",
          "type": "bool"
        }
      ],
      "name": "registerUser",
      "outputs": [],
      "stateMutability": "nonpayable",
      "type": "function"
    },
    {
      "inputs": [
        {
          "internalType": "string",
          "name": "_title",
          "type": "string"
        },
        {
          "internalType": "string",
          "name": "_description",
          "type": "string"
        },
        {
          "internalType": "string",
          "name": "_imageId",
          "type": "string"
        },
        {
          "internalType": "uint256",
          "name": "_maxBids",
          "type": "uint256"
        }
      ],
      "name": "createProposal",
      "outputs": [],
      "stateMutability": "nonpayable",
      "type": "function"
    },
    {
      "inputs": [
        {
          "internalType": "uint256",
          "name": "_proposalId",
          "type": "uint256"
        }
      ],
      "name": "openProposalForBidding",
      "outputs": [],
      "stateMutability": "nonpayable",
      "type": "function"
    },
    {
      "inputs": [
        {
          "internalType": "uint256",
          "name": "_proposalId",
          "type": "uint256"
        }
      ],
      "name": "voteOnProposal",
      "outputs": [],
      "stateMutability": "nonpayable",
      "type": "function"
    },
    {
      "inputs": [
        {
          "internalType": "uint256",
          "name": "_proposalId",
          "type": "uint256"
        },
        {
          "internalType": "uint256",
          "name": "_amount",
          "type": "uint256"
        },
        {
          "internalType": "string",
          "name": "_details",
          "type": "string"
        }
      ],
      "name": "submitBid",
      "outputs": [],
      "stateMutability": "nonpayable",
      "type": "function"
    },
    {
      "inputs": [
        {
          "internalType": "uint256",
          "name": "_proposalId",
          "type": "uint256"
        },
        {
          "internalType": "uint256",
          "name": "_bidId",
          "type": "uint256"
        }
      ],
      "name": "acceptBid",
      "outputs": [],
      "stateMutability": "nonpayable",
      "type": "function"
    },
    {
      "inputs": [],
      "name": "helloWorld",
      "outputs": [
        {
          "internalType": "string",
          "name": "",
          "type": "string"
        }
      ],
      "stateMutability": "pure",
      "type": "function",
      "constant": true
    },
    {
      "inputs": [
        {
          "internalType": "uint256",
          "name": "_proposalId",
          "type": "uint256"
        }
      ],
      "name": "requestSecondPayment",
      "outputs": [],
      "stateMutability": "nonpayable",
      "type": "function"
    },
    {
      "inputs": [
        {
          "internalType": "uint256",
          "name": "_proposalId",
          "type": "uint256"
        }
      ],
      "name": "closeProposal",
      "outputs": [],
      "stateMutability": "nonpayable",
      "type": "function"
    },
    {
      "inputs": [
        {
          "internalType": "uint256",
          "name": "_proposalId",
          "type": "uint256"
        }
      ],
      "name": "getProposal",
      "outputs": [
        {
          "components": [
            {
              "internalType": "uint256",
              "name": "id",
              "type": "uint256"
            },
            {
              "internalType": "string",
              "name": "title",
              "type": "string"
            },
            {
              "internalType": "string",
              "name": "description",
              "type": "string"
            },
            {
              "internalType": "string",
              "name": "imageId",
              "type": "string"
            },
            {
              "internalType": "uint256",
              "name": "voteCount",
              "type": "uint256"
            },
            {
              "internalType": "uint256",
              "name": "bidCount",
              "type": "uint256"
            },
            {
              "internalType": "uint256",
              "name": "maxBids",
              "type": "uint256"
            },
            {
              "internalType": "enum eGovDAO.ProposalStatus",
              "name": "status",
              "type": "uint8"
            },
            {
              "internalType": "address",
              "name": "proposer",
              "type": "address"
            },
            {
              "internalType": "uint256",
              "name": "remainingPayment",
              "type": "uint256"
            },
            {
              "internalType": "bool",
              "name": "paymentMade",
              "type": "bool"
            }
          ],
          "internalType": "struct eGovDAO.Proposal",
          "name": "",
          "type": "tuple"
        }
      ],
      "stateMutability": "view",
      "type": "function",
      "constant": true
    },
    {
      "inputs": [],
      "name": "getAllProposals",
      "outputs": [
        {
          "components": [
            {
              "internalType": "uint256",
              "name": "id",
              "type": "uint256"
            },
            {
              "internalType": "string",
              "name": "title",
              "type": "string"
            },
            {
              "internalType": "string",
              "name": "description",
              "type": "string"
            },
            {
              "internalType": "string",
              "name": "imageId",
              "type": "string"
            },
            {
              "internalType": "uint256",
              "name": "voteCount",
              "type": "uint256"
            },
            {
              "internalType": "uint256",
              "name": "bidCount",
              "type": "uint256"
            },
            {
              "internalType": "uint256",
              "name": "maxBids",
              "type": "uint256"
            },
            {
              "internalType": "enum eGovDAO.ProposalStatus",
              "name": "status",
              "type": "uint8"
            },
            {
              "internalType": "address",
              "name": "proposer",
              "type": "address"
            },
            {
              "internalType": "uint256",
              "name": "remainingPayment",
              "type": "uint256"
            },
            {
              "internalType": "bool",
              "name": "paymentMade",
              "type": "bool"
            }
          ],
          "internalType": "struct eGovDAO.Proposal[]",
          "name": "",
          "type": "tuple[]"
        }
      ],
      "stateMutability": "view",
      "type": "function",
      "constant": true
    },
    {
      "inputs": [
        {
          "internalType": "uint256",
          "name": "_proposalId",
          "type": "uint256"
        }
      ],
      "name": "getBids",
      "outputs": [
        {
          "components": [
            {
              "internalType": "uint256",
              "name": "id",
              "type": "uint256"
            },
            {
              "internalType": "uint256",
              "name": "proposalId",
              "type": "uint256"
            },
            {
              "internalType": "address",
              "name": "bidder",
              "type": "address"
            },
            {
              "internalType": "uint256",
              "name": "amount",
              "type": "uint256"
            },
            {
              "internalType": "string",
              "name": "details",
              "type": "string"
            },
            {
              "internalType": "bool",
              "name": "accepted",
              "type": "bool"
            }
          ],
          "internalType": "struct eGovDAO.Bid[]",
          "name": "",
          "type": "tuple[]"
        }
      ],
      "stateMutability": "view",
      "type": "function",
      "constant": true
    }
  ],
  "bytecode": "0x608060405234801561001057600080fd5b50600680546001600160a01b03191633908117909155604080518082018252600180825260208083019182526000948552600390529190922091518254915115156101000261ff00199115159190911661ffff199092169190911717905561228b8061007d6000396000f3fe608060405234801561001057600080fd5b506004361061012c5760003560e01c80639f2524ee116100ad578063c605f76c11610071578063c605f76c14610306578063c7f758a814610334578063cceb68f514610354578063da35c66414610369578063f2fde38b1461037257600080fd5b80639f2524ee14610248578063a33f21c614610286578063a87430ba14610299578063add68edc146102dc578063b40a5627146102ef57600080fd5b806314c60bdd116100f457806314c60bdd146101bf5780634c15676b146101d25780637b3c4baa146101e55780638da5cb5b1461020a578063951faf001461023557600080fd5b8063013cf08b1461013157806302e9d5e4146101645780630386a016146101795780630a66b3b71461018c578063131d9a271461019f575b600080fd5b61014461013f36600461198b565b610385565b60405161015b9b9a99989796959493929190611a22565b60405180910390f35b610177610172366004611ab6565b610582565b005b61017761018736600461198b565b610857565b61017761019a36600461198b565b6108d8565b6101b26101ad36600461198b565b610953565b60405161015b9190611ad8565b6101776101cd366004611c2a565b610a9e565b6101776101e0366004611c7a565b610d2a565b6101f86101f3366004611ab6565b610efe565b60405161015b96959493929190611d0a565b60065461021d906001600160a01b031681565b6040516001600160a01b03909116815260200161015b565b610177610243366004611d6e565b610fed565b610276610256366004611daa565b600260209081526000928352604080842090915290825290205460ff1681565b604051901515815260200161015b565b61017761029436600461198b565b61106f565b6102c56102a7366004611dd4565b60036020526000908152604090205460ff8082169161010090041682565b60408051921515835290151560208301520161015b565b6101776102ea36600461198b565b6111ad565b6102f860055481565b60405190815260200161015b565b604080518082018252600c81526b1a195b1b1bcb081ddbdc9b1960a21b6020820152905161015b9190611df6565b61034761034236600461198b565b611309565b60405161015b9190611ec5565b61035c611571565b60405161015b9190611ed8565b6102f860045481565b610177610380366004611dd4565b611872565b600060208190529081526040902080546001820180549192916103a790611f3a565b80601f01602080910402602001604051908101604052809291908181526020018280546103d390611f3a565b80156104205780601f106103f557610100808354040283529160200191610420565b820191906000526020600020905b81548152906001019060200180831161040357829003601f168201915b50505050509080600201805461043590611f3a565b80601f016020809104026020016040519081016040528092919081815260200182805461046190611f3a565b80156104ae5780601f10610483576101008083540402835291602001916104ae565b820191906000526020600020905b81548152906001019060200180831161049157829003601f168201915b5050505050908060030180546104c390611f3a565b80601f01602080910402602001604051908101604052809291908181526020018280546104ef90611f3a565b801561053c5780601f106105115761010080835404028352916020019161053c565b820191906000526020600020905b81548152906001019060200180831161051f57829003601f168201915b505050506004830154600584015460068501546007860154600887015460099097015495969395929450909260ff808316936101009093046001600160a01b031692168b565b6006546001600160a01b031633146105b55760405162461bcd60e51b81526004016105ac90611f6e565b60405180910390fd5b600082815260208190526040902054829081146105e45760405162461bcd60e51b81526004016105ac90611fb3565b6000838152600160205260408120905b8154811015610850578382828154811061061057610610611fea565b906000526020600020906006020160000154148015610655575081818154811061063c5761063c611fea565b600091825260209091206005600690920201015460ff16155b1561083e57600182828154811061066e5761066e611fea565b906000526020600020906006020160050160006101000a81548160ff0219169083151502179055507f92de81be1966205d1eae87645cfc252ae7aac135302a7d502cce67811978383485858484815481106106cb576106cb611fea565b906000526020600020906006020160020160009054906101000a90046001600160a01b031685858154811061070257610702611fea565b906000526020600020906006020160030154600060405161074e95949392919094855260208501939093526001600160a01b039190911660408401526060830152608082015260a00190565b60405180910390a16000600283838154811061076c5761076c611fea565b9060005260206000209060060201600301546107889190612016565b905082828154811061079c5761079c611fea565b600091825260208220600260069092020101546040516001600160a01b039091169183156108fc02918491818181858888f193505050501580156107e4573d6000803e3d6000fd5b50808383815481106107f8576107f8611fea565b9060005260206000209060060201600301546108149190612038565b60008781526020819052604090206008810191909155600901805460ff1916600117905550610850565b8061084881612051565b9150506105f4565b5050505050565b6006546001600160a01b031633146108815760405162461bcd60e51b81526004016105ac90611f6e565b600081815260208190526040902054819081146108b05760405162461bcd60e51b81526004016105ac90611fb3565b600082815260208190526040902060070180546002919060ff19166001835b02179055505050565b6006546001600160a01b031633146109025760405162461bcd60e51b81526004016105ac90611f6e565b600081815260208190526040902054819081146109315760405162461bcd60e51b81526004016105ac90611fb3565b600082815260208190526040902060070180546001919060ff191682806108cf565b606060016000838152602001908152602001600020805480602002602001604051908101604052809291908181526020016000905b82821015610a935760008481526020908190206040805160c081018252600686029092018054835260018101549383019390935260028301546001600160a01b031690820152600382015460608201526004820180549192916080840191906109f090611f3a565b80601f0160208091040260200160405190810160405280929190818152602001828054610a1c90611f3a565b8015610a695780601f10610a3e57610100808354040283529160200191610a69565b820191906000526020600020905b815481529060010190602001808311610a4c57829003601f168201915b50505091835250506005919091015460ff1615156020918201529082526001929092019101610988565b505050509050919050565b3360009081526003602052604090205460ff16610acd5760405162461bcd60e51b81526004016105ac9061206a565b60008381526020819052604090205483908114610afc5760405162461bcd60e51b81526004016105ac90611fb3565b83600160008281526020819052604090206007015460ff166002811115610b2557610b256119ea565b14610b725760405162461bcd60e51b815260206004820181905260248201527f50726f706f73616c206973206e6f74206f70656e20666f722062696464696e6760448201526064016105ac565b6000858152602081905260409020600681015460059091015410610bf15760405162461bcd60e51b815260206004820152603060248201527f4d6178696d756d206e756d626572206f6620626964732072656163686564206660448201526f1bdc881d1a1a5cc81c1c9bdc1bdcd85b60821b60648201526084016105ac565b60058054906000610c0183612051565b90915550506000858152600160208181526040808420815160c08101835260055481528084018b815233938201938452606082018b8152608083018b815260a0840189905284548089018655948952959097208251600690940201928355519482019490945590516002820180546001600160a01b0319166001600160a01b0390921691909117905592516003840155519091906004820190610ca49082612105565b5060a091909101516005918201805460ff19169115159190911790556000868152602081905260408120909101805491610cdd83612051565b91905055507fcfe407e98f349ad37514e1f908d19f08a2cd86855b90e505fb3c58ab5a68f20385600554338787604051610d1b9594939291906121c5565b60405180910390a15050505050565b6006546001600160a01b03163314610d545760405162461bcd60e51b81526004016105ac90611f6e565b60048054906000610d6483612051565b91905055506040518061016001604052806004548152602001858152602001848152602001838152602001600081526020016000815260200182815260200160006002811115610db657610db66119ea565b81523360208083019190915260006040808401829052606090930181905260045481528082529190912082518155908201516001820190610df79082612105565b5060408201516002820190610e0c9082612105565b5060608201516003820190610e219082612105565b506080820151600482015560a0820151600582015560c0820151600682015560e082015160078201805460ff19166001836002811115610e6357610e636119ea565b021790555061010082810151600783018054610100600160a81b0319166001600160a01b039092169092021790556101208201516008820155610140909101516009909101805460ff19169115159190911790556004546040517ff00aac70e58cc1fe442334d3dc47da72b9985fa601cfe3ba895c987de3b89d0c91610ef0918790879087908790612203565b60405180910390a150505050565b60016020528160005260406000208181548110610f1a57600080fd5b6000918252602090912060069091020180546001820154600283015460038401546004850180549497509295506001600160a01b03909116939092909190610f6190611f3a565b80601f0160208091040260200160405190810160405280929190818152602001828054610f8d90611f3a565b8015610fda5780601f10610faf57610100808354040283529160200191610fda565b820191906000526020600020905b815481529060010190602001808311610fbd57829003601f168201915b5050506005909301549192505060ff1686565b6006546001600160a01b031633146110175760405162461bcd60e51b81526004016105ac90611f6e565b6040805180820182526001815291151560208084019182526001600160a01b039490941660009081526003909452922090518154925161ffff1990931690151561ff0019161761010092151592909202919091179055565b6006546001600160a01b031633146110995760405162461bcd60e51b81526004016105ac90611f6e565b600081815260208190526040902054819081146110c85760405162461bcd60e51b81526004016105ac90611fb3565b60008281526020819052604090206009015460ff166111335760405162461bcd60e51b815260206004820152602160248201527f496e697469616c207061796d656e7420686173206e6f74206265656e206d61646044820152606560f81b60648201526084016105ac565b6000828152602081905260408082206008810154600790910154915190926101009092046001600160a01b0316916108fc841502918491818181858888f19350505050158015611187573d6000803e3d6000fd5b50505060009081526020819052604081206008810191909155600901805460ff19169055565b3360009081526003602052604090205460ff166111dc5760405162461bcd60e51b81526004016105ac9061206a565b6000818152602081905260409020548190811461120b5760405162461bcd60e51b81526004016105ac90611fb3565b33600090815260026020908152604080832085845290915290205460ff16156112865760405162461bcd60e51b815260206004820152602760248201527f596f75206861766520616c726561647920766f746564206f6e207468697320706044820152661c9bdc1bdcd85b60ca1b60648201526084016105ac565b60008281526020819052604081206004018054916112a383612051565b9091555050336000818152600260209081526040808320868452825291829020805460ff191660011790558151858152908101929092527f34647120636ce03d739347e28e9d1bdd34fd03d066ae60439fb1be2721ad16cd910160405180910390a15050565b611311611920565b600082815260208181526040918290208251610160810190935280548352600181018054919284019161134390611f3a565b80601f016020809104026020016040519081016040528092919081815260200182805461136f90611f3a565b80156113bc5780601f10611391576101008083540402835291602001916113bc565b820191906000526020600020905b81548152906001019060200180831161139f57829003601f168201915b505050505081526020016002820180546113d590611f3a565b80601f016020809104026020016040519081016040528092919081815260200182805461140190611f3a565b801561144e5780601f106114235761010080835404028352916020019161144e565b820191906000526020600020905b81548152906001019060200180831161143157829003601f168201915b5050505050815260200160038201805461146790611f3a565b80601f016020809104026020016040519081016040528092919081815260200182805461149390611f3a565b80156114e05780601f106114b5576101008083540402835291602001916114e0565b820191906000526020600020905b8154815290600101906020018083116114c357829003601f168201915b5050509183525050600482015460208201526005820154604082015260068201546060820152600782015460809091019060ff166002811115611525576115256119ea565b6002811115611536576115366119ea565b8152600782015461010090046001600160a01b031660208201526008820154604082015260099091015460ff16151560609091015292915050565b6060600060045467ffffffffffffffff81111561159057611590611b87565b6040519080825280602002602001820160405280156115c957816020015b6115b6611920565b8152602001906001900390816115ae5790505b50905060015b600454811161186c57600081815260208181526040918290208251610160810190935280548352600181018054919284019161160a90611f3a565b80601f016020809104026020016040519081016040528092919081815260200182805461163690611f3a565b80156116835780601f1061165857610100808354040283529160200191611683565b820191906000526020600020905b81548152906001019060200180831161166657829003601f168201915b5050505050815260200160028201805461169c90611f3a565b80601f01602080910402602001604051908101604052809291908181526020018280546116c890611f3a565b80156117155780601f106116ea57610100808354040283529160200191611715565b820191906000526020600020905b8154815290600101906020018083116116f857829003601f168201915b5050505050815260200160038201805461172e90611f3a565b80601f016020809104026020016040519081016040528092919081815260200182805461175a90611f3a565b80156117a75780601f1061177c576101008083540402835291602001916117a7565b820191906000526020600020905b81548152906001019060200180831161178a57829003601f168201915b5050509183525050600482015460208201526005820154604082015260068201546060820152600782015460809091019060ff1660028111156117ec576117ec6119ea565b60028111156117fd576117fd6119ea565b8152600782015461010090046001600160a01b031660208201526008820154604082015260099091015460ff1615156060909101528261183e600184612038565b8151811061184e5761184e611fea565b6020026020010181905250808061186490612051565b9150506115cf565b50919050565b6006546001600160a01b0316331461189c5760405162461bcd60e51b81526004016105ac90611f6e565b6001600160a01b0381166118fe5760405162461bcd60e51b8152602060048201526024808201527f4e6577206f776e65722063616e6e6f7420626520746865207a65726f206164646044820152637265737360e01b60648201526084016105ac565b600680546001600160a01b0319166001600160a01b0392909216919091179055565b6040518061016001604052806000815260200160608152602001606081526020016060815260200160008152602001600081526020016000815260200160006002811115611970576119706119ea565b81526000602082018190526040820181905260609091015290565b60006020828403121561199d57600080fd5b5035919050565b6000815180845260005b818110156119ca576020818501810151868301820152016119ae565b506000602082860101526020601f19601f83011685010191505092915050565b634e487b7160e01b600052602160045260246000fd5b60038110611a1e57634e487b7160e01b600052602160045260246000fd5b9052565b60006101608d8352806020840152611a3c8184018e6119a4565b90508281036040840152611a50818d6119a4565b90508281036060840152611a64818c6119a4565b9150508860808301528760a08301528660c0830152611a8660e0830187611a00565b6001600160a01b039490941661010082015261012081019290925215156101409091015298975050505050505050565b60008060408385031215611ac957600080fd5b50508035926020909101359150565b60006020808301818452808551808352604092508286019150828160051b87010184880160005b83811015611b7957888303603f190185528151805184528781015188850152868101516001600160a01b0316878501526060808201519085015260808082015160c08287018190529190611b55838801826119a4565b60a09485015115159790940196909652505094870194925090860190600101611aff565b509098975050505050505050565b634e487b7160e01b600052604160045260246000fd5b600082601f830112611bae57600080fd5b813567ffffffffffffffff80821115611bc957611bc9611b87565b604051601f8301601f19908116603f01168101908282118183101715611bf157611bf1611b87565b81604052838152866020858801011115611c0a57600080fd5b836020870160208301376000602085830101528094505050505092915050565b600080600060608486031215611c3f57600080fd5b8335925060208401359150604084013567ffffffffffffffff811115611c6457600080fd5b611c7086828701611b9d565b9150509250925092565b60008060008060808587031215611c9057600080fd5b843567ffffffffffffffff80821115611ca857600080fd5b611cb488838901611b9d565b95506020870135915080821115611cca57600080fd5b611cd688838901611b9d565b94506040870135915080821115611cec57600080fd5b50611cf987828801611b9d565b949793965093946060013593505050565b86815285602082015260018060a01b038516604082015283606082015260c060808201526000611d3d60c08301856119a4565b905082151560a0830152979650505050505050565b80356001600160a01b0381168114611d6957600080fd5b919050565b60008060408385031215611d8157600080fd5b611d8a83611d52565b915060208301358015158114611d9f57600080fd5b809150509250929050565b60008060408385031215611dbd57600080fd5b611dc683611d52565b946020939093013593505050565b600060208284031215611de657600080fd5b611def82611d52565b9392505050565b602081526000611def60208301846119a4565b6000610160825184526020830151816020860152611e29828601826119a4565b91505060408301518482036040860152611e4382826119a4565b91505060608301518482036060860152611e5d82826119a4565b9150506080830151608085015260a083015160a085015260c083015160c085015260e0830151611e9060e0860182611a00565b50610100838101516001600160a01b031690850152610120808401519085015261014092830151151592909301919091525090565b602081526000611def6020830184611e09565b6000602080830181845280855180835260408601915060408160051b870101925083870160005b82811015611f2d57603f19888603018452611f1b858351611e09565b94509285019290850190600101611eff565b5092979650505050505050565b600181811c90821680611f4e57607f821691505b60208210810361186c57634e487b7160e01b600052602260045260246000fd5b60208082526025908201527f4f6e6c7920746865206f776e65722063616e2063616c6c20746869732066756e60408201526431ba34b7b760d91b606082015260800190565b60208082526017908201527f50726f706f73616c20646f6573206e6f74206578697374000000000000000000604082015260600190565b634e487b7160e01b600052603260045260246000fd5b634e487b7160e01b600052601160045260246000fd5b60008261203357634e487b7160e01b600052601260045260246000fd5b500490565b8181038181111561204b5761204b612000565b92915050565b60006001820161206357612063612000565b5060010190565b6020808252602c908201527f4f6e6c7920726567697374657265642075736572732063616e2063616c6c207460408201526b3434b990333ab731ba34b7b760a11b606082015260800190565b601f82111561210057600081815260208120601f850160051c810160208610156120dd5750805b601f850160051c820191505b818110156120fc578281556001016120e9565b5050505b505050565b815167ffffffffffffffff81111561211f5761211f611b87565b6121338161212d8454611f3a565b846120b6565b602080601f83116001811461216857600084156121505750858301515b600019600386901b1c1916600185901b1785556120fc565b600085815260208120601f198616915b8281101561219757888601518255948401946001909101908401612178565b50858210156121b55787850151600019600388901b60f8161c191681555b5050505050600190811b01905550565b85815284602082015260018060a01b038416604082015282606082015260a0608082015260006121f860a08301846119a4565b979650505050505050565b85815260a06020820152600061221c60a08301876119a4565b828103604084015261222e81876119a4565b9050828103606084015261224281866119a4565b915050826080830152969550505050505056fea26469706673582212200738492f35e27249ebea26dcd427769a9fecaa371e4256ab77a542826938fc6e64736f6c63430008130033",
  "immutableReferences": {},
  "source": "// SPDX-License-Identifier: MIT\npragma solidity ^0.8.19;\n\ncontract eGovDAO {\n    enum ProposalStatus { UnderReview, OpenForBidding, Completed }\n    \n    struct Proposal {\n        uint id;\n        string title;\n        string description;\n        string imageId;\n        uint voteCount;\n        uint bidCount;\n        uint maxBids;\n        ProposalStatus status;\n        address proposer;\n        uint remainingPayment; \n        bool paymentMade; \n    }\n\n    struct Bid {\n        uint id;\n        uint proposalId;\n        address bidder;\n        uint amount;\n        string details;\n        bool accepted;\n    }\n\n    struct User {\n        bool registered;\n        bool isGovernment;\n    }\n\n    mapping(uint => Proposal) public proposals;\n    mapping(uint => Bid[]) public bids;\n    mapping(address => mapping(uint => bool)) public votes; \n    mapping(address => User) public users; \n\n    uint public proposalCount;\n    uint public bidCount;\n\n    address public owner;\n\n    event ProposalCreated(uint proposalId, string title, string description, string imageId, uint maxBids);\n    event ProposalVoted(uint proposalId, address voter);\n    event BidSubmitted(uint proposalId, uint bidId, address bidder, uint amount, string details);\n    event BidAccepted(uint proposalId, uint bidId, address bidder, uint amount, uint initialPayment);\n\n    modifier onlyOwner() {\n        require(msg.sender == owner, \"Only the owner can call this function\");\n        _;\n    }\n\n    modifier onlyRegisteredUser() {\n        require(users[msg.sender].registered, \"Only registered users can call this function\");\n        _;\n    }\n\n    modifier proposalExists(uint _proposalId) {\n        require(proposals[_proposalId].id == _proposalId, \"Proposal does not exist\");\n        _;\n    }\n\n    modifier onlyActiveProposal(uint _proposalId) {\n        require(proposals[_proposalId].status == ProposalStatus.OpenForBidding, \"Proposal is not open for bidding\");\n        _;\n    }\n\n    constructor() {\n        owner = msg.sender;\n            users[msg.sender] = User(true, true);\n    }\n\n    function transferOwnership(address newOwner) public onlyOwner {\n        require(newOwner != address(0), \"New owner cannot be the zero address\");\n        owner = newOwner;\n    }\n\n    function registerUser(address _user, bool _isGovernment) public onlyOwner {\n        users[_user] = User(true, _isGovernment);\n    }\n\n\n    function createProposal(string memory _title, string memory _description, string memory _imageId, uint _maxBids) public onlyOwner {\n        proposalCount++;\n        proposals[proposalCount] = Proposal(proposalCount, _title, _description, _imageId, 0, 0, _maxBids, ProposalStatus.UnderReview, msg.sender, 0, false);\n        emit ProposalCreated(proposalCount, _title, _description, _imageId, _maxBids);\n    }\n\n    function openProposalForBidding(uint _proposalId) public onlyOwner proposalExists(_proposalId) {\n        proposals[_proposalId].status = ProposalStatus.OpenForBidding;\n    }\n\n    function voteOnProposal(uint _proposalId) public onlyRegisteredUser proposalExists(_proposalId) {\n        require(!votes[msg.sender][_proposalId], \"You have already voted on this proposal\");\n\n        proposals[_proposalId].voteCount++;\n        votes[msg.sender][_proposalId] = true;\n        emit ProposalVoted(_proposalId, msg.sender);\n    }\n\n    function submitBid(uint _proposalId, uint _amount, string memory _details) public onlyRegisteredUser proposalExists(_proposalId) onlyActiveProposal(_proposalId) {\n        require(proposals[_proposalId].bidCount < proposals[_proposalId].maxBids, \"Maximum number of bids reached for this proposal\");\n\n        bidCount++;\n        bids[_proposalId].push(Bid(bidCount, _proposalId, msg.sender, _amount, _details, false));\n        proposals[_proposalId].bidCount++;\n        emit BidSubmitted(_proposalId, bidCount, msg.sender, _amount, _details);\n    }\n\n    function acceptBid(uint _proposalId, uint _bidId) public onlyOwner proposalExists(_proposalId) {\n        Bid[] storage proposalBids = bids[_proposalId];\n        for (uint i = 0; i < proposalBids.length; i++) {\n            if (proposalBids[i].id == _bidId && !proposalBids[i].accepted) {\n                proposalBids[i].accepted = true;\n                emit BidAccepted(_proposalId, _bidId, proposalBids[i].bidder, proposalBids[i].amount, 0);\n\n                uint initialPayment = proposalBids[i].amount / 2;\n                payable(proposalBids[i].bidder).transfer(initialPayment);\n                proposals[_proposalId].remainingPayment = proposalBids[i].amount - initialPayment;\n                proposals[_proposalId].paymentMade = true;\n\n                break;\n            }\n        }\n    }\n    \n    function helloWorld() public pure returns (string memory) {\n        return \"hello, world\";\n    }\n    \n    function requestSecondPayment(uint _proposalId) public onlyOwner proposalExists(_proposalId) {\n        require(proposals[_proposalId].paymentMade, \"Initial payment has not been made\");\n\n        uint remainingPayment = proposals[_proposalId].remainingPayment;\n        payable(proposals[_proposalId].proposer).transfer(remainingPayment);\n        proposals[_proposalId].remainingPayment = 0;\n        proposals[_proposalId].paymentMade = false;\n    }\n\n    function closeProposal(uint _proposalId) public onlyOwner proposalExists(_proposalId) {\n        proposals[_proposalId].status = ProposalStatus.Completed;\n    }\n\n    function getProposal(uint _proposalId) public view returns (Proposal memory) {\n        return proposals[_proposalId];\n    }\n\n    function getAllProposals() public view returns (Proposal[] memory) {\n        Proposal[] memory allProposals = new Proposal[](proposalCount);\n        for (uint i = 1; i <= proposalCount; i++) {\n            allProposals[i - 1] = proposals[i];\n        }\n        return allProposals;\n    }\n\n    function getBids(uint _proposalId) public view returns (Bid[] memory) {\n        return bids[_proposalId];\n    }\n}\n",
  "sourcePath": "/media/kohi9noor/1320c44e-841a-4bbe-bc41-00535332b98c/development/blockchain-dev/egov-dao/contract/contracts/eGovDao.sol",
  "compiler": {
    "name": "solc",
    "version": "0.8.19+commit.7dd6d404.Emscripten.clang"
  },
  "schemaVersion": "3.4.16",
  "updatedAt": "2024-07-09T09:44:46.316Z",
  "networkType": "ethereum",
  "devdoc": {
    "kind": "dev",
    "methods": {},
    "version": 1
  },
  "userdoc": {
    "kind": "user",
    "methods": {},
    "version": 1
  }
}